:100162003F065B4F666D7D077F6F777C395E7971E5
:01017200008C
:10017300438901758CFC758A18D2A9D2AFD28C221F
:07000300D2AFD2AAD28A227B
:0A014D00F583E493F5807F4C7E04F7
:0B015700EF1FAC0670011E4C70F6227A
:03000B000200F8F8
:0400F800C0E0C0D0D4
:1000FC00758CFC758A180509E50970020508B4E8C9
:10010C0013E508B4030E750800750900E50B150B13
:04011C007002150A4E
:05012000D0D0D0E03258
:03001300020125C2
:10012500C0E0C0D075D000C004C006C0077FF47E13
:100135000112015720B306750A00750B3BD007D095
:0801450006D004D0D0D0E03256
:1000A100120003120173750A00750B3BC3E50A6464
:1000B100809480403AC2A2C2A3C2A4AE0AAF0B7C14
:1000C100007D0A12001674622DF58274013C120142
:1000D1004DC2A2C2A3D2A4AE0AAF0B7C007D0A120C
:1000E100001674622FF58274013E12014D80BD75B8
:0700F1000A00750B3B80B50E
:0300000002018377
:0C018300787FE4F6D8FD75810B0200A126
:10001600C2D5EC30E709B2D5E4C39DFDE49CFCEE05
:1000260030E715B2D5E4C39FFFE49EFE12004CC331
:10003600E49DFDE49CFC800312004C30D507C3E42C
:060046009FFFE49EFE2274
:10004C00BC000BBE0029EF8DF084FFADF022E4CC98
:10005C00F875F008EF2FFFEE33FEEC33FCEE9DEC61
:10006C00984005FCEE9DFE0FD5F0E9E4CEFD22EDA7
:10007C00F8F5F0EE8420D21CFEADF075F008EF2FF1
:10008C00FFED33FD4007985006D5F0F222C398FDE2
:05009C000FD5F0EA227F
:00000001FF
