:03000E00010801E5
:0700FF00D2AFD2AAD28A227F
:0B000300EF1FAC0670011E4C70F622CF
:1000A2001200FF75A0FE7F507EC3120003E4FDED37
:1000B200C394077480948050F4E5086401700FAF14
:1000C200A07801EF08800123D8FDF5A080007F50C1
:0800D2007EC31200030D80D76C
:030013000200DA0E
:1000DA00C0E0C0D075D000C004C006C0077FE87E6B
:1000EA000312000320B3036308FFD007D006D0042D
:0500FA00D0D0D0E0327F
:03000000020016E5
:0C001600787FE4F6D8FD75810802005DDB
:100022000200A2E493A3F8E493A34003F68001F252
:1000320008DFF48029E493A3F85407240CC8C333DF
:10004200C4540F4420C8834004F456800146F6DFAE
:10005200E4800B010204081020408090000EE47E30
:10006200019360BCA3FF543F30E509541FFEE493A3
:10007200A360010ECF54C025E060A840B8E493A36A
:10008200FAE493A3F8E493A3C8C582C8CAC583CA95
:10009200F0A3C8C582C8CAC583CADFE9DEE780BE4D
:0100110000EE
:00000001FF
